{
  "contractName": "AccessControl",
  "abi": [
    {
      "inputs": [],
      "stateMutability": "nonpayable",
      "type": "constructor"
    },
    {
      "anonymous": false,
      "inputs": [
        {
          "indexed": true,
          "internalType": "address",
          "name": "personnel",
          "type": "address"
        }
      ],
      "name": "PersonnelRevoked",
      "type": "event"
    },
    {
      "anonymous": false,
      "inputs": [
        {
          "indexed": true,
          "internalType": "address",
          "name": "personnel",
          "type": "address"
        }
      ],
      "name": "PersonnelVerified",
      "type": "event"
    },
    {
      "inputs": [],
      "name": "owner",
      "outputs": [
        {
          "internalType": "address",
          "name": "",
          "type": "address"
        }
      ],
      "stateMutability": "view",
      "type": "function",
      "constant": true
    },
    {
      "inputs": [
        {
          "internalType": "address",
          "name": "_personnel",
          "type": "address"
        }
      ],
      "name": "verifyPersonnel",
      "outputs": [],
      "stateMutability": "nonpayable",
      "type": "function"
    },
    {
      "inputs": [
        {
          "internalType": "address",
          "name": "_personnel",
          "type": "address"
        }
      ],
      "name": "revokePersonnel",
      "outputs": [],
      "stateMutability": "nonpayable",
      "type": "function"
    },
    {
      "inputs": [
        {
          "internalType": "address",
          "name": "_personnel",
          "type": "address"
        }
      ],
      "name": "isVerified",
      "outputs": [
        {
          "internalType": "bool",
          "name": "",
          "type": "bool"
        }
      ],
      "stateMutability": "view",
      "type": "function",
      "constant": true
    },
    {
      "inputs": [],
      "name": "getOwner",
      "outputs": [
        {
          "internalType": "address",
          "name": "",
          "type": "address"
        }
      ],
      "stateMutability": "view",
      "type": "function",
      "constant": true
    }
  ],
  "bytecode": "0x608060405234801561001057600080fd5b50336000806101000a81548173ffffffffffffffffffffffffffffffffffffffff021916908373ffffffffffffffffffffffffffffffffffffffff1602179055506107b4806100606000396000f3fe608060405234801561001057600080fd5b50600436106100575760003560e01c80634708e55f1461005c578063615a662814610078578063893d20e8146100945780638da5cb5b146100b2578063b9209e33146100d0575b600080fd5b61007660048036038101906100719190610576565b610100565b005b610092600480360381019061008d9190610576565b6102b8565b005b61009c610470565b6040516100a991906105b2565b60405180910390f35b6100ba610499565b6040516100c791906105b2565b60405180910390f35b6100ea60048036038101906100e59190610576565b6104bd565b6040516100f791906105e8565b60405180910390f35b60008054906101000a900473ffffffffffffffffffffffffffffffffffffffff1673ffffffffffffffffffffffffffffffffffffffff163373ffffffffffffffffffffffffffffffffffffffff161461018e576040517f08c379a000000000000000000000000000000000000000000000000000000000815260040161018590610686565b60405180910390fd5b600160008273ffffffffffffffffffffffffffffffffffffffff1673ffffffffffffffffffffffffffffffffffffffff16815260200190815260200160002060009054906101000a900460ff1661021a576040517f08c379a0000000000000000000000000000000000000000000000000000000008152600401610211906106f2565b60405180910390fd5b6000600160008373ffffffffffffffffffffffffffffffffffffffff1673ffffffffffffffffffffffffffffffffffffffff16815260200190815260200160002060006101000a81548160ff0219169083151502179055508073ffffffffffffffffffffffffffffffffffffffff167f66457d438f63200ebd1108ca6abdbbc0bd6e9a573ca5c68a2d44eb7b998fc19260405160405180910390a250565b60008054906101000a900473ffffffffffffffffffffffffffffffffffffffff1673ffffffffffffffffffffffffffffffffffffffff163373ffffffffffffffffffffffffffffffffffffffff1614610346576040517f08c379a000000000000000000000000000000000000000000000000000000000815260040161033d90610686565b60405180910390fd5b600160008273ffffffffffffffffffffffffffffffffffffffff1673ffffffffffffffffffffffffffffffffffffffff16815260200190815260200160002060009054906101000a900460ff16156103d3576040517f08c379a00000000000000000000000000000000000000000000000000000000081526004016103ca9061075e565b60405180910390fd5b60018060008373ffffffffffffffffffffffffffffffffffffffff1673ffffffffffffffffffffffffffffffffffffffff16815260200190815260200160002060006101000a81548160ff0219169083151502179055508073ffffffffffffffffffffffffffffffffffffffff167fec82f249b04a196dd53e2b215e5d02bc8fa125cb4c2c211ca2353862f2ab2ce260405160405180910390a250565b60008060009054906101000a900473ffffffffffffffffffffffffffffffffffffffff16905090565b60008054906101000a900473ffffffffffffffffffffffffffffffffffffffff1681565b6000600160008373ffffffffffffffffffffffffffffffffffffffff1673ffffffffffffffffffffffffffffffffffffffff16815260200190815260200160002060009054906101000a900460ff169050919050565b600080fd5b600073ffffffffffffffffffffffffffffffffffffffff82169050919050565b600061054382610518565b9050919050565b61055381610538565b811461055e57600080fd5b50565b6000813590506105708161054a565b92915050565b60006020828403121561058c5761058b610513565b5b600061059a84828501610561565b91505092915050565b6105ac81610538565b82525050565b60006020820190506105c760008301846105a3565b92915050565b60008115159050919050565b6105e2816105cd565b82525050565b60006020820190506105fd60008301846105d9565b92915050565b600082825260208201905092915050565b7f4f6e6c7920746865206f776e65722063616e20706572666f726d20746869732060008201527f616374696f6e0000000000000000000000000000000000000000000000000000602082015250565b6000610670602683610603565b915061067b82610614565b604082019050919050565b6000602082019050818103600083015261069f81610663565b9050919050565b7f506572736f6e6e656c206973206e6f7420766572696669656400000000000000600082015250565b60006106dc601983610603565b91506106e7826106a6565b602082019050919050565b6000602082019050818103600083015261070b816106cf565b9050919050565b7f506572736f6e6e656c20697320616c7265616479207665726966696564000000600082015250565b6000610748601d83610603565b915061075382610712565b602082019050919050565b600060208201905081810360008301526107778161073b565b905091905056fea26469706673582212202b8b769404825f175fe92578185bbef5a460f43d27ca18ef2514dbd1280ba84f64736f6c634300080d0033",
  "immutableReferences": {},
  "source": "// SPDX-License-Identifier: MIT\r\npragma solidity ^0.8.13;\r\n\r\ncontract AccessControl {\r\n    address public owner; // Owner of the contract\r\n    mapping(address => bool) private verifiedPersonnel; // Mapping to track verified personnel\r\n    event PersonnelVerified(address indexed personnel);\r\n    event PersonnelRevoked(address indexed personnel);\r\n\r\n    // Modifier to restrict access to the owner\r\n    modifier onlyOwner() {\r\n        require(msg.sender == owner, \"Only the owner can perform this action\");\r\n        _;\r\n    }\r\n\r\n    constructor() {\r\n        owner = msg.sender; // Set the contract creator as the owner\r\n    }\r\n\r\n    // Function to verify a new personnel\r\n    function verifyPersonnel(address _personnel) external onlyOwner {\r\n        require(!verifiedPersonnel[_personnel], \"Personnel is already verified\");\r\n        verifiedPersonnel[_personnel] = true;\r\n        emit PersonnelVerified(_personnel);\r\n    }\r\n\r\n    // Function to revoke a personnel's access\r\n    function revokePersonnel(address _personnel) external onlyOwner {\r\n        require(verifiedPersonnel[_personnel], \"Personnel is not verified\");\r\n        verifiedPersonnel[_personnel] = false;\r\n        emit PersonnelRevoked(_personnel);\r\n    }\r\n\r\n    // Function to check if a personnel is verified\r\n    function isVerified(address _personnel) external view returns (bool) {\r\n        return verifiedPersonnel[_personnel];\r\n    }\r\n\r\n    // Function to get the owner of the contract\r\n    function getOwner() external view returns (address) {\r\n        return owner;\r\n    }\r\n}",
  "sourcePath": "C:\\Users\\Aksha\\Desktop\\BlockLock\\codeutsaveme\\contracts\\accessControl.sol",
  "compiler": {
    "name": "solc",
    "version": "0.8.13+commit.abaa5c0e.Emscripten.clang"
  },
  "schemaVersion": "3.4.16",
  "updatedAt": "2024-10-27T04:43:10.680Z",
  "networkType": "ethereum",
  "devdoc": {
    "kind": "dev",
    "methods": {},
    "version": 1
  },
  "userdoc": {
    "kind": "user",
    "methods": {},
    "version": 1
  }
}