{
  "contractName": "axess",
  "abi": [
    {
      "inputs": [],
      "stateMutability": "nonpayable",
      "type": "constructor"
    },
    {
      "anonymous": false,
      "inputs": [
        {
          "indexed": true,
          "internalType": "address",
          "name": "user",
          "type": "address"
        },
        {
          "indexed": false,
          "internalType": "uint256",
          "name": "timestamp",
          "type": "uint256"
        },
        {
          "indexed": false,
          "internalType": "bool",
          "name": "success",
          "type": "bool"
        }
      ],
      "name": "AccessAttempt",
      "type": "event"
    },
    {
      "anonymous": false,
      "inputs": [
        {
          "indexed": true,
          "internalType": "address",
          "name": "user",
          "type": "address"
        }
      ],
      "name": "UserAdded",
      "type": "event"
    },
    {
      "anonymous": false,
      "inputs": [
        {
          "indexed": true,
          "internalType": "address",
          "name": "user",
          "type": "address"
        }
      ],
      "name": "UserRemoved",
      "type": "event"
    },
    {
      "inputs": [
        {
          "internalType": "address",
          "name": "",
          "type": "address"
        }
      ],
      "name": "authorizedUsers",
      "outputs": [
        {
          "internalType": "bool",
          "name": "",
          "type": "bool"
        }
      ],
      "stateMutability": "view",
      "type": "function",
      "constant": true
    },
    {
      "inputs": [],
      "name": "owner",
      "outputs": [
        {
          "internalType": "address",
          "name": "",
          "type": "address"
        }
      ],
      "stateMutability": "view",
      "type": "function",
      "constant": true
    },
    {
      "inputs": [
        {
          "internalType": "address",
          "name": "user",
          "type": "address"
        }
      ],
      "name": "addUser",
      "outputs": [],
      "stateMutability": "nonpayable",
      "type": "function"
    },
    {
      "inputs": [
        {
          "internalType": "address",
          "name": "user",
          "type": "address"
        }
      ],
      "name": "removeUser",
      "outputs": [],
      "stateMutability": "nonpayable",
      "type": "function"
    },
    {
      "inputs": [
        {
          "internalType": "address",
          "name": "user",
          "type": "address"
        }
      ],
      "name": "logAccessAttempt",
      "outputs": [],
      "stateMutability": "nonpayable",
      "type": "function"
    }
  ],
  "bytecode": "0x608060405234801561001057600080fd5b50336000806101000a81548173ffffffffffffffffffffffffffffffffffffffff021916908373ffffffffffffffffffffffffffffffffffffffff160217905550610623806100606000396000f3fe608060405234801561001057600080fd5b50600436106100575760003560e01c80631828983a1461005c578063293c7ca21461008c578063421b2d8b146100a85780638da5cb5b146100c457806398575188146100e2575b600080fd5b610076600480360381019061007191906104a1565b6100fe565b60405161008391906104e9565b60405180910390f35b6100a660048036038101906100a191906104a1565b61011e565b005b6100c260048036038101906100bd91906104a1565b6101c3565b005b6100cc6102ee565b6040516100d99190610513565b60405180910390f35b6100fc60048036038101906100f791906104a1565b610312565b005b60016020528060005260406000206000915054906101000a900460ff1681565b6000600160008373ffffffffffffffffffffffffffffffffffffffff1673ffffffffffffffffffffffffffffffffffffffff16815260200190815260200160002060009054906101000a900460ff1690508173ffffffffffffffffffffffffffffffffffffffff167fc9741799a597e7f829344104324324429e7cbf17608dd6c0da07231b1f80ba4e42836040516101b7929190610547565b60405180910390a25050565b60008054906101000a900473ffffffffffffffffffffffffffffffffffffffff1673ffffffffffffffffffffffffffffffffffffffff163373ffffffffffffffffffffffffffffffffffffffff1614610251576040517f08c379a0000000000000000000000000000000000000000000000000000000008152600401610248906105cd565b60405180910390fd5b60018060008373ffffffffffffffffffffffffffffffffffffffff1673ffffffffffffffffffffffffffffffffffffffff16815260200190815260200160002060006101000a81548160ff0219169083151502179055508073ffffffffffffffffffffffffffffffffffffffff167f19ef9a4877199f89440a26acb26895ec02ed86f2df1aeaa90dc18041b892f71f60405160405180910390a250565b60008054906101000a900473ffffffffffffffffffffffffffffffffffffffff1681565b60008054906101000a900473ffffffffffffffffffffffffffffffffffffffff1673ffffffffffffffffffffffffffffffffffffffff163373ffffffffffffffffffffffffffffffffffffffff16146103a0576040517f08c379a0000000000000000000000000000000000000000000000000000000008152600401610397906105cd565b60405180910390fd5b6000600160008373ffffffffffffffffffffffffffffffffffffffff1673ffffffffffffffffffffffffffffffffffffffff16815260200190815260200160002060006101000a81548160ff0219169083151502179055508073ffffffffffffffffffffffffffffffffffffffff167fe9dce8c992623ce791725b21e857e33248d1f190a25b5168313420eebdaae99d60405160405180910390a250565b600080fd5b600073ffffffffffffffffffffffffffffffffffffffff82169050919050565b600061046e82610443565b9050919050565b61047e81610463565b811461048957600080fd5b50565b60008135905061049b81610475565b92915050565b6000602082840312156104b7576104b661043e565b5b60006104c58482850161048c565b91505092915050565b60008115159050919050565b6104e3816104ce565b82525050565b60006020820190506104fe60008301846104da565b92915050565b61050d81610463565b82525050565b60006020820190506105286000830184610504565b92915050565b6000819050919050565b6105418161052e565b82525050565b600060408201905061055c6000830185610538565b61056960208301846104da565b9392505050565b600082825260208201905092915050565b7f4e6f742074686520636f6e7472616374206f776e657200000000000000000000600082015250565b60006105b7601683610570565b91506105c282610581565b602082019050919050565b600060208201905081810360008301526105e6816105aa565b905091905056fea264697066735822122080ba0abb6a73c6c3a56aa71f572e3a4e1c9f92082736fd23ab94eef0cf9ad1e064736f6c634300080d0033",
  "immutableReferences": {},
  "source": "// SPDX-License-Identifier: MIT\r\npragma solidity ^0.8.13;\r\n\r\ncontract axess{\r\n    address public owner;\r\n    mapping(address => bool) public authorizedUsers;\r\n\r\n    event UserAdded(address indexed user);\r\n    event UserRemoved(address indexed user);\r\n    event AccessAttempt(address indexed user, uint256 timestamp, bool success);\r\n\r\n    constructor() {\r\n        owner = msg.sender;\r\n    }\r\n\r\n    modifier onlyOwner() {\r\n        require(msg.sender == owner, \"Not the contract owner\");\r\n        _;\r\n    }\r\n\r\n    function addUser(address user) public onlyOwner {\r\n        authorizedUsers[user] = true;\r\n        emit UserAdded(user);\r\n    }\r\n\r\n    function removeUser(address user) public onlyOwner {\r\n        authorizedUsers[user] = false;\r\n        emit UserRemoved(user);\r\n    }\r\n\r\n    function logAccessAttempt(address user) public {\r\n        bool success = authorizedUsers[user];\r\n        emit AccessAttempt(user, block.timestamp, success);\r\n    }\r\n}\r\n",
  "sourcePath": "C:\\Users\\Aksha\\Desktop\\BlockLock\\codeutsaveme\\contracts\\axess.sol",
  "compiler": {
    "name": "solc",
    "version": "0.8.13+commit.abaa5c0e.Emscripten.clang"
  },
  "schemaVersion": "3.4.16",
  "updatedAt": "2024-10-27T04:43:10.676Z",
  "networkType": "ethereum",
  "devdoc": {
    "kind": "dev",
    "methods": {},
    "version": 1
  },
  "userdoc": {
    "kind": "user",
    "methods": {},
    "version": 1
  }
}