{
  "contractName": "privacy",
  "abi": [
    {
      "inputs": [],
      "stateMutability": "nonpayable",
      "type": "constructor"
    },
    {
      "anonymous": false,
      "inputs": [
        {
          "indexed": false,
          "internalType": "bool",
          "name": "enabled",
          "type": "bool"
        }
      ],
      "name": "PrivacySettingChanged",
      "type": "event"
    },
    {
      "inputs": [],
      "name": "owner",
      "outputs": [
        {
          "internalType": "address",
          "name": "",
          "type": "address"
        }
      ],
      "stateMutability": "view",
      "type": "function",
      "constant": true
    },
    {
      "inputs": [],
      "name": "privacyEnabled",
      "outputs": [
        {
          "internalType": "bool",
          "name": "",
          "type": "bool"
        }
      ],
      "stateMutability": "view",
      "type": "function",
      "constant": true
    },
    {
      "inputs": [
        {
          "internalType": "bool",
          "name": "enabled",
          "type": "bool"
        }
      ],
      "name": "setDataPrivacy",
      "outputs": [],
      "stateMutability": "nonpayable",
      "type": "function"
    }
  ],
  "bytecode": "0x608060405234801561001057600080fd5b50336000806101000a81548173ffffffffffffffffffffffffffffffffffffffff021916908373ffffffffffffffffffffffffffffffffffffffff1602179055506001600060146101000a81548160ff02191690831515021790555061035a8061007b6000396000f3fe608060405234801561001057600080fd5b50600436106100415760003560e01c8063303e715f146100465780638da5cb5b14610064578063c086591c14610082575b600080fd5b61004e61009e565b60405161005b91906101d2565b60405180910390f35b61006c6100b1565b604051610079919061022e565b60405180910390f35b61009c6004803603810190610097919061027a565b6100d5565b005b600060149054906101000a900460ff1681565b60008054906101000a900473ffffffffffffffffffffffffffffffffffffffff1681565b60008054906101000a900473ffffffffffffffffffffffffffffffffffffffff1673ffffffffffffffffffffffffffffffffffffffff163373ffffffffffffffffffffffffffffffffffffffff1614610163576040517f08c379a000000000000000000000000000000000000000000000000000000000815260040161015a90610304565b60405180910390fd5b80600060146101000a81548160ff0219169083151502179055507f7cf6f27166635ca7de380792e502673562c065b49455b821093b491067cea553816040516101ac91906101d2565b60405180910390a150565b60008115159050919050565b6101cc816101b7565b82525050565b60006020820190506101e760008301846101c3565b92915050565b600073ffffffffffffffffffffffffffffffffffffffff82169050919050565b6000610218826101ed565b9050919050565b6102288161020d565b82525050565b6000602082019050610243600083018461021f565b92915050565b600080fd5b610257816101b7565b811461026257600080fd5b50565b6000813590506102748161024e565b92915050565b6000602082840312156102905761028f610249565b5b600061029e84828501610265565b91505092915050565b600082825260208201905092915050565b7f4e6f742074686520636f6e7472616374206f776e657200000000000000000000600082015250565b60006102ee6016836102a7565b91506102f9826102b8565b602082019050919050565b6000602082019050818103600083015261031d816102e1565b905091905056fea264697066735822122017c6ad59f175e8b093217a5097046fd9d5ae9463e9d05db6edbde2eab121ded664736f6c634300080d0033",
  "immutableReferences": {},
  "source": "// SPDX-License-Identifier: MIT\r\npragma solidity ^0.8.13;\r\n\r\ncontract privacy {\r\n    address public owner;\r\n    bool public privacyEnabled;\r\n\r\n    event PrivacySettingChanged(bool enabled);\r\n\r\n    constructor() {\r\n        owner = msg.sender;\r\n        privacyEnabled = true;\r\n    }\r\n\r\n    modifier onlyOwner() {\r\n        require(msg.sender == owner, \"Not the contract owner\");\r\n        _;\r\n    }\r\n\r\n    function setDataPrivacy(bool enabled) public onlyOwner {\r\n        privacyEnabled = enabled;\r\n        emit PrivacySettingChanged(enabled);\r\n    }\r\n}\r\n",
  "sourcePath": "C:\\Users\\Aksha\\Desktop\\BlockLock\\codeutsaveme\\contracts\\privacy.sol",
  "compiler": {
    "name": "solc",
    "version": "0.8.13+commit.abaa5c0e.Emscripten.clang"
  },
  "schemaVersion": "3.4.16",
  "updatedAt": "2024-10-27T04:43:10.678Z",
  "networkType": "ethereum",
  "devdoc": {
    "kind": "dev",
    "methods": {},
    "version": 1
  },
  "userdoc": {
    "kind": "user",
    "methods": {},
    "version": 1
  }
}